{
  "contractName": "Accumulator",
  "abi": [
    {
      "inputs": [],
      "stateMutability": "nonpayable",
      "type": "constructor"
    },
    {
      "anonymous": false,
      "inputs": [
        {
          "indexed": false,
          "internalType": "uint256[2]",
          "name": "W",
          "type": "uint256[2]"
        },
        {
          "indexed": false,
          "internalType": "uint256",
          "name": "request_id",
          "type": "uint256"
        },
        {
          "indexed": false,
          "internalType": "uint256",
          "name": "kr",
          "type": "uint256"
        }
      ],
      "name": "send_W_kr",
      "type": "event"
    },
    {
      "anonymous": false,
      "inputs": [
        {
          "indexed": false,
          "internalType": "uint256[]",
          "name": "validators_share",
          "type": "uint256[]"
        },
        {
          "indexed": false,
          "internalType": "uint256[]",
          "name": "openers_share",
          "type": "uint256[]"
        }
      ],
      "name": "send_key_shares",
      "type": "event"
    },
    {
      "anonymous": false,
      "inputs": [
        {
          "components": [
            {
              "internalType": "uint256",
              "name": "X",
              "type": "uint256"
            },
            {
              "internalType": "uint256",
              "name": "Y",
              "type": "uint256"
            }
          ],
          "indexed": false,
          "internalType": "struct G.G1Point",
          "name": "delta",
          "type": "tuple"
        }
      ],
      "name": "send_updated_witness",
      "type": "event"
    },
    {
      "inputs": [
        {
          "internalType": "uint256[]",
          "name": "indexes",
          "type": "uint256[]"
        }
      ],
      "name": "lagrange_basis",
      "outputs": [
        {
          "internalType": "uint256[]",
          "name": "",
          "type": "uint256[]"
        }
      ],
      "stateMutability": "view",
      "type": "function",
      "constant": true
    },
    {
      "inputs": [],
      "name": "genAggregatedYa",
      "outputs": [
        {
          "internalType": "uint256",
          "name": "",
          "type": "uint256"
        }
      ],
      "stateMutability": "view",
      "type": "function",
      "constant": true
    },
    {
      "inputs": [
        {
          "internalType": "uint256",
          "name": "ya",
          "type": "uint256"
        },
        {
          "internalType": "uint256",
          "name": "kr",
          "type": "uint256"
        }
      ],
      "name": "updateWitness",
      "outputs": [],
      "stateMutability": "nonpayable",
      "type": "function"
    },
    {
      "inputs": [
        {
          "internalType": "uint256",
          "name": "ya",
          "type": "uint256"
        },
        {
          "internalType": "uint256",
          "name": "r",
          "type": "uint256"
        }
      ],
      "name": "genWitness",
      "outputs": [
        {
          "components": [
            {
              "internalType": "uint256",
              "name": "X",
              "type": "uint256"
            },
            {
              "internalType": "uint256",
              "name": "Y",
              "type": "uint256"
            }
          ],
          "internalType": "struct G.G1Point",
          "name": "",
          "type": "tuple"
        }
      ],
      "stateMutability": "view",
      "type": "function",
      "constant": true
    },
    {
      "inputs": [
        {
          "internalType": "uint256",
          "name": "id",
          "type": "uint256"
        },
        {
          "internalType": "uint256",
          "name": "share",
          "type": "uint256"
        },
        {
          "internalType": "uint256",
          "name": "request_id",
          "type": "uint256"
        }
      ],
      "name": "recieve_ya_share_revocation",
      "outputs": [],
      "stateMutability": "nonpayable",
      "type": "function"
    },
    {
      "inputs": [
        {
          "components": [
            {
              "internalType": "uint256",
              "name": "X",
              "type": "uint256"
            },
            {
              "internalType": "uint256",
              "name": "Y",
              "type": "uint256"
            }
          ],
          "internalType": "struct G.G1Point",
          "name": "m",
          "type": "tuple"
        }
      ],
      "name": "hash_to_G1",
      "outputs": [
        {
          "components": [
            {
              "internalType": "uint256",
              "name": "X",
              "type": "uint256"
            },
            {
              "internalType": "uint256",
              "name": "Y",
              "type": "uint256"
            }
          ],
          "internalType": "struct G.G1Point",
          "name": "",
          "type": "tuple"
        }
      ],
      "stateMutability": "view",
      "type": "function",
      "constant": true
    },
    {
      "inputs": [
        {
          "components": [
            {
              "internalType": "uint256",
              "name": "X",
              "type": "uint256"
            },
            {
              "internalType": "uint256",
              "name": "Y",
              "type": "uint256"
            }
          ],
          "internalType": "struct G.G1Point",
          "name": "a",
          "type": "tuple"
        }
      ],
      "name": "hash_to_int",
      "outputs": [
        {
          "internalType": "uint256",
          "name": "",
          "type": "uint256"
        }
      ],
      "stateMutability": "view",
      "type": "function",
      "constant": true
    },
    {
      "inputs": [
        {
          "internalType": "uint256",
          "name": "id",
          "type": "uint256"
        },
        {
          "internalType": "uint256",
          "name": "share",
          "type": "uint256"
        },
        {
          "internalType": "uint256",
          "name": "request_id",
          "type": "uint256"
        }
      ],
      "name": "recieve_ya_share",
      "outputs": [],
      "stateMutability": "nonpayable",
      "type": "function"
    },
    {
      "inputs": [
        {
          "internalType": "uint256",
          "name": "_no",
          "type": "uint256"
        },
        {
          "internalType": "uint256",
          "name": "_to",
          "type": "uint256"
        },
        {
          "internalType": "uint256",
          "name": "_nv",
          "type": "uint256"
        },
        {
          "internalType": "uint256",
          "name": "_tv",
          "type": "uint256"
        }
      ],
      "name": "set_accumulator",
      "outputs": [],
      "stateMutability": "nonpayable",
      "type": "function"
    },
    {
      "inputs": [
        {
          "internalType": "uint256[]",
          "name": "array",
          "type": "uint256[]"
        },
        {
          "internalType": "uint256",
          "name": "x",
          "type": "uint256"
        }
      ],
      "name": "gen_share",
      "outputs": [
        {
          "internalType": "uint256",
          "name": "",
          "type": "uint256"
        }
      ],
      "stateMutability": "view",
      "type": "function",
      "constant": true
    },
    {
      "inputs": [
        {
          "components": [
            {
              "internalType": "uint256",
              "name": "X",
              "type": "uint256"
            },
            {
              "internalType": "uint256",
              "name": "Y",
              "type": "uint256"
            }
          ],
          "internalType": "struct G.G1Point",
          "name": "cm",
          "type": "tuple"
        }
      ],
      "name": "generate_kr_shares",
      "outputs": [
        {
          "internalType": "uint256[]",
          "name": "",
          "type": "uint256[]"
        },
        {
          "internalType": "uint256[]",
          "name": "",
          "type": "uint256[]"
        }
      ],
      "stateMutability": "nonpayable",
      "type": "function"
    },
    {
      "inputs": [],
      "name": "gen_random",
      "outputs": [
        {
          "internalType": "uint256",
          "name": "",
          "type": "uint256"
        }
      ],
      "stateMutability": "nonpayable",
      "type": "function"
    }
  ],
  "bytecode": "0x6080604052600060035534801561001557600080fd5b50600080546001600160a01b0319163317905561159a806100376000396000f3fe608060405234801561001057600080fd5b50600436106100b45760003560e01c80639957efd1116100715780639957efd1146101765780639966fba614610189578063aa0c77cd1461019c578063cdb1ad75146101a4578063e0687718146101ac578063eb205bbe146101bf57600080fd5b80630a9665da146100b95780633553964a146100df57806342afaa4a146100f457806344ad0745146101145780639162c47d1461014257806391f711f714610163575b600080fd5b6100cc6100c736600461123d565b6101d2565b6040519081526020015b60405180910390f35b6100f26100ed366004611282565b61025b565b005b6101076101023660046112b4565b6102d1565b6040516100d69190611324565b61012761012236600461133e565b61046d565b604080518251815260209283015192810192909252016100d6565b61015561015036600461133e565b6105dd565b6040516100d692919061138d565b6101276101713660046113b2565b6108a6565b6100f26101843660046113d4565b61091d565b6100f26101973660046113d4565b610a3c565b6100cc610b30565b6100cc610bb0565b6100f26101ba3660046113b2565b610d55565b6100cc6101cd36600461133e565b610da9565b600080600080516020611545833981519152815b85518110156102475781806101fd576101fd611400565b828061020b5761020b611400565b610216878486610f0c565b88848151811061022857610228611416565b602002602001015109840892508061023f81611442565b9150506101e6565b50610252818361145b565b95945050505050565b60408051808201825260008082526020918201528151808301909252600180835260029290910182905280805590805560048590556006839055600584905560078290555b60045481116102ca57600081815260086020526040812055806102c281611442565b9150506102a0565b5050505050565b6060600060008051602061154583398151915290506000835167ffffffffffffffff8111156103025761030261118c565b60405190808252806020026020018201604052801561032b578160200160208202803683370190505b50905060005b84518110156104655760018060005b875181101561041757600088858151811061035d5761035d611416565b60200260200101519050600089838151811061037b5761037b611416565b60200260200101519050818111156103c157878061039b5761039b611400565b818609945087806103ae576103ae611400565b6103b8838361147d565b85099350610402565b818110156104025787806103d7576103d7611400565b856103e2838b61147d565b09945087806103f3576103f3611400565b6103fd828461147d565b850993505b5050808061040f90611442565b915050610340565b50848061042657610426611400565b6104308287610f72565b830984848151811061044457610444611416565b6020026020010181815250505050808061045d90611442565b915050610331565b509392505050565b604080518082018252600080825260208083018290528451908501518451858152606081018652939491939092849284929060208201818036833701905050905060005b602081101561050b578381602081106104cc576104cc611416565b1a60f81b8282815181106104e2576104e2611416565b60200101906001600160f81b031916908160001a9053508061050381611442565b9150506104b1565b5060205b6040811015610573578261052460208361147d565b6020811061053457610534611416565b1a60f81b82828151811061054a5761054a611416565b60200101906001600160f81b031916908160001a9053508061056b81611442565b91505061050f565b5060006002826040516105869190611494565b602060405180830381855afa1580156105a3573d6000803e3d6000fd5b5050506040513d601f19601f820116820180604052508101906105c691906114cf565b90506105d181610fc3565b98975050505050505050565b606080600060075467ffffffffffffffff8111156105fd576105fd61118c565b604051908082528060200260200182016040528015610626578160200160208202803683370190505b509050600060055467ffffffffffffffff8111156106465761064661118c565b60405190808252806020026020018201604052801561066f578160200160208202803683370190505b509050600060065467ffffffffffffffff81111561068f5761068f61118c565b6040519080825280602002602001820160405280156106b8578160200160208202803683370190505b509050600060045467ffffffffffffffff8111156106d8576106d861118c565b604051908082528060200260200182016040528015610701578160200160208202803683370190505b509050600061070e610b30565b9050806009600061071e8b610da9565b815260200190815260200160002081905550808560008151811061074457610744611416565b602002602001018181525050808460008151811061076457610764611416565b602090810291909101015260015b6007548110156107b357610784610b30565b86828151811061079657610796611416565b6020908102919091010152806107ab81611442565b915050610772565b5060015b6005548110156107f8576107c9610b30565b8582815181106107db576107db611416565b6020908102919091010152806107f081611442565b9150506107b7565b5060015b60065481116108485761080f86826101d2565b8461081b60018461147d565b8151811061082b5761082b611416565b60209081029190910101528061084081611442565b9150506107fc565b5060015b60045481116108985761085f85826101d2565b8361086b60018461147d565b8151811061087b5761087b611416565b60209081029190910101528061089081611442565b91505061084c565b509197909650945050505050565b6040805180820190915260008082526020820152604080518082019091526001548152600254602082015260009061091590610910600080516020611545833981519152600087815260096020526040902054889008600080516020611545833981519152610f72565b611052565b949350505050565b6000838152600860209081526040808320859055805180820190915282815290810182905260015b60045481116109825760008181526008602052604090205415610970578261096c81611442565b9350505b8061097a81611442565b915050610945565b5060055482036102ca576000610996610bb0565b90506109a281856108a6565b915060015b60045481116109d157600081815260086020526040812055806109c981611442565b9150506109a7565b5060408051808201825283518152602080850151818301526000878152600990915282902054915190917ff32e91fd1dfb17df3411302ec68bae52302fc6ee7354ef770149c39f1f50df2791610a2b9184918991906114e8565b60405180910390a150505050505050565b600083815260086020526040812083905560015b6004548111610a8d5760008181526008602052604090205415610a7b5781610a7781611442565b9250505b80610a8581611442565b915050610a50565b506005548103610b2a576000610aa1610bb0565b600084815260096020526040902054909150610abe908290610d55565b60015b6004548111610aeb5760008181526008602052604081205580610ae381611442565b915050610ac1565b5060408051600154815260025460208201527ffb3690ec029e480da74b4f8fe3ba40ed8957043e47397e09aa721519b4dc996d910160405180910390a1505b50505050565b6003805460009182610b4183611442565b9091555050600354604080514260208201526bffffffffffffffffffffffff193360601b16918101919091526054810191909152600080516020611545833981519152906074016040516020818303038152906040528051906020012060001c610bab919061145b565b905090565b60008060055467ffffffffffffffff811115610bce57610bce61118c565b604051908082528060200260200182016040528015610bf7578160200160208202803683370190505b509050600060055467ffffffffffffffff811115610c1757610c1761118c565b604051908082528060200260200182016040528015610c40578160200160208202803683370190505b509050600060015b6004548111610cd55760008181526008602052604090205415610cc35780848381518110610c7857610c78611416565b6020026020010181815250506008600082815260200190815260200160002054838381518110610caa57610caa611416565b602090810291909101015281610cbf81611442565b9250505b80610ccd81611442565b915050610c48565b506000610ce1846102d1565b90506000805b8551811015610d4b5760008051602061154583398151915280848381518110610d1257610d12611416565b6020026020010151878481518110610d2c57610d2c611416565b6020026020010151098308915080610d4381611442565b915050610ce7565b5095945050505050565b6040805180820190915260015481526002546020820152610d9990610910600080516020611545833981519152858508600080516020611545833981519152610f72565b8051600155602001516002555050565b600080610db58361046d565b805160208201516040805181815260608101825293945091929091839183916000919060208201818036833701905050905060005b6020811015610e4457838160208110610e0557610e05611416565b1a60f81b828281518110610e1b57610e1b611416565b60200101906001600160f81b031916908160001a90535080610e3c81611442565b915050610dea565b5060205b6040811015610eac5782610e5d60208361147d565b60208110610e6d57610e6d611416565b1a60f81b828281518110610e8357610e83611416565b60200101906001600160f81b031916908160001a90535080610ea481611442565b915050610e48565b506000600282604051610ebf9190611494565b602060405180830381855afa158015610edc573d6000803e3d6000fd5b5050506040513d601f19601f82011682018060405250810190610eff91906114cf565b9998505050505050505050565b600080610f17611132565b610f1f611150565b602080825281810181905260408201819052606082018890526080820187905260a082018690528260c08360056107d05a03fa92508280610f5c57fe5b5082610f6757600080fd5b505195945050505050565b60008060405160208152602080820152602060408201528460608201526002840360808201528360a082015260208160c08360056107d05a03fa90519250905080610fbc57600080fd5b5092915050565b604080518082019091526000808252602082015260008080610ff36000805160206115458339815191528661145b565b90505b610fff816110b0565b90935091506000805160206115258339815191528283098303611038576040805180820190915290815260208101919091529392505050565b600080516020611525833981519152600182089050610ff6565b604080518082019091526000808252602082015261106e61116e565b835181526020808501519082015260408101839052600060608360808460076107d05a03fa9050808061109d57fe5b50806110a857600080fd5b505092915050565b60008080600080516020611525833981519152600360008051602061152583398151915286600080516020611525833981519152888909090890506000611126827f0c19139cb84c680a6e14116da060561765e05aa45a1c72a34f082305b61f3f52600080516020611525833981519152610f0c565b91959194509092505050565b60405180602001604052806001906020820280368337509192915050565b6040518060c001604052806006906020820280368337509192915050565b60405180606001604052806003906020820280368337509192915050565b634e487b7160e01b600052604160045260246000fd5b600082601f8301126111b357600080fd5b8135602067ffffffffffffffff808311156111d0576111d061118c565b8260051b604051601f19603f830116810181811084821117156111f5576111f561118c565b60405293845285810183019383810192508785111561121357600080fd5b83870191505b8482101561123257813583529183019190830190611219565b979650505050505050565b6000806040838503121561125057600080fd5b823567ffffffffffffffff81111561126757600080fd5b611273858286016111a2565b95602094909401359450505050565b6000806000806080858703121561129857600080fd5b5050823594602084013594506040840135936060013592509050565b6000602082840312156112c657600080fd5b813567ffffffffffffffff8111156112dd57600080fd5b610915848285016111a2565b600081518084526020808501945080840160005b83811015611319578151875295820195908201906001016112fd565b509495945050505050565b60208152600061133760208301846112e9565b9392505050565b60006040828403121561135057600080fd5b6040516040810181811067ffffffffffffffff821117156113735761137361118c565b604052823581526020928301359281019290925250919050565b6040815260006113a060408301856112e9565b828103602084015261025281856112e9565b600080604083850312156113c557600080fd5b50508035926020909101359150565b6000806000606084860312156113e957600080fd5b505081359360208301359350604090920135919050565b634e487b7160e01b600052601260045260246000fd5b634e487b7160e01b600052603260045260246000fd5b634e487b7160e01b600052601160045260246000fd5b6000600182016114545761145461142c565b5060010190565b60008261147857634e487b7160e01b600052601260045260246000fd5b500690565b60008282101561148f5761148f61142c565b500390565b6000825160005b818110156114b5576020818601810151858301520161149b565b818111156114c4576000828501525b509190910192915050565b6000602082840312156114e157600080fd5b5051919050565b60808101818560005b60028110156115105781518352602092830192909101906001016114f1565b50505060408201939093526060015291905056fe30644e72e131a029b85045b68181585d97816a916871ca8d3c208c16d87cfd4730644e72e131a029b85045b68181585d2833e84879b9709143e1f593f0000001a2646970667358221220591cc40d36c64f148c304b7b643efcc5a2cb3a4c4c5ca3c08158d6c49352ad5264736f6c634300080d0033",
  "immutableReferences": {},
  "source": "// SPDX-License-Identifier: GPL-3.0\npragma solidity >=0.7.0 <0.9.0;\npragma experimental ABIEncoderV2;\n/** \n * @title Ballot\n * @dev Implements voting process along with vote delegation\n */\nimport { G } from \"../libraries/G.sol\";\ncontract Accumulator{\n\n    address private owner;\n    G.G1Point private delta;\n    uint randNonce = 0;\n    uint private no;\n    uint private to;\n    uint private nv;\n    uint private tv;\n    //uint256[] private validators_share;\n    //uint256[] private openers_share;\n    mapping(uint => uint256) private accumulator_key_shares;\n    mapping(uint256 => uint256) private id_kr;\n    constructor() {\n        owner = msg.sender;\n    }\n\n    modifier onlyOwner {\n        require(msg.sender == owner);\n        _;\n    }\n    \n    event send_key_shares(uint256[] validators_share, uint256[] openers_share);\n    event send_W_kr(uint256[2] W, uint256 request_id, uint256 kr);\n    event send_updated_witness(G.G1Point delta);\n\n    function lagrange_basis(uint[] memory indexes) public view returns(uint256[] memory){\n            uint256 o = G.GEN_ORDER;\n            uint256[] memory l = new uint256[](indexes.length);\n            for(uint a=0; a<indexes.length; a++){\n                uint256 numerator =1;\n                uint256 denominator = 1;\n                for(uint b=0;b<indexes.length; b++){\n                    uint256 i = indexes[a];\n                    uint256 j = indexes[b];\n                    if (j > i){\n                        numerator = mulmod(numerator, j, o);\n                        denominator = mulmod(denominator, (j-i), o);\n                    }\n                    else if(j < i){\n                        numerator = mulmod(o - j,numerator, o);\n                        denominator = mulmod(denominator, (i-j), o);\n                    }\n                }\n                l[a] = mulmod(numerator, G._modInv(denominator, o), o);\n            }\n            return l;\n\n    }\n    function genAggregatedYa() public view returns(uint256){\n            uint256 [] memory indexes = new uint[](to);\n            uint256 [] memory filter = new uint[](to);\n            uint u = 0;\n            for (uint i=1; i<=no; i++) \n            {\n                if(accumulator_key_shares[i] !=0){\n                    indexes[u] = i;\n                    filter[u] = accumulator_key_shares[i];\n                    u++;\n                }\n            }\n            uint256[] memory l = lagrange_basis(indexes);\n            uint256 aggr_ka = 0;\n            for (uint i=0; i<indexes.length; i++){\n                aggr_ka = addmod(aggr_ka ,(mulmod(filter[i], l[i], G.GEN_ORDER)),G.GEN_ORDER);\n            }\n\n            return aggr_ka;\n    }\n    function updateWitness(uint256 ya, uint256 kr) public {\n            delta = G.g1mul(delta, G._modInv(addmod(kr,ya,G.GEN_ORDER),G.GEN_ORDER));\n    }\n    function genWitness(uint256 ya,uint256 r) public view returns(G.G1Point memory){\n            G.G1Point memory kr = G.g1mul(delta, G._modInv(addmod(id_kr[r],ya,G.GEN_ORDER),G.GEN_ORDER));\n            return kr;\n    }\n    function recieve_ya_share_revocation(uint id, uint256 share, uint256 request_id) public {\n        accumulator_key_shares[id] = share;\n        uint count = 0;\n        for (uint i=1; i<=no; i++) \n        {\n            if(accumulator_key_shares[i] !=0) count++;\n        }\n        if(count==to){\n            uint256 Ya = genAggregatedYa();\n            updateWitness(Ya, id_kr[request_id]);\n            for (uint i=1; i<=no; i++) \n            {\n               accumulator_key_shares[i] =0;\n            }\n            emit send_updated_witness(delta);\n        }\n        \n    }\n\n    function hash_to_G1(G.G1Point memory m) public view returns (G.G1Point memory){\n        uint256 cm = m.X;\n        uint256 cm2 = m.Y;\n        bytes32 bcm = bytes32(cm);\n        bytes32 bcm2 = bytes32(cm2);\n        bytes memory c = new bytes(64);\n        for(uint i=0;i<32;i++){\n            c[i] = bcm[i];\n        }\n        for(uint j=32;j<64;j++){\n            c[j] = bcm2[j-32];\n        }\n        uint256 id = uint256(sha256(c));\n        return G.HashToPoint(id);\n    }\n\n    function hash_to_int(G.G1Point memory a) public view returns(uint256){\n        G.G1Point memory b = hash_to_G1(a);\n        uint256 cm = b.X;\n        uint256 cm2 = b.Y;\n        bytes32 bcm = bytes32(cm);\n        bytes32 bcm2 = bytes32(cm2);\n        bytes memory c = new bytes(64);\n        for(uint i=0;i<32;i++){\n            c[i] = bcm[i];\n        }\n        for(uint j=32;j<64;j++){\n            c[j] = bcm2[j-32];\n        }\n        uint256 id = uint256(sha256(c));\n        return id;\n    }\n\n    function recieve_ya_share(uint id, uint256 share, uint256 request_id) public {\n        accumulator_key_shares[id] = share;\n        uint count = 0;\n        G.G1Point memory W;\n        for (uint i=1; i<=no; i++) \n        {\n            if(accumulator_key_shares[i] !=0) count++;\n        }\n        if(count==to){\n            uint256 Ya = genAggregatedYa();\n            W = genWitness(Ya,request_id);\n            for (uint i=1; i<=no; i++) \n            {\n               accumulator_key_shares[i] =0;\n            }\n            uint256[2] memory W_m = [W.X, W.Y];\n            emit send_W_kr(W_m,request_id,id_kr[request_id]);\n        }\n        \n    }\n\n    function set_accumulator(uint _no,uint _to,uint _nv,uint _tv) public {\n        delta = G.P1();\n        no = _no;\n        nv = _nv;\n        to = _to;\n        tv = _tv;\n        for (uint i=1; i<=no; i++) \n        {\n            accumulator_key_shares[i] = 0;\n        }\n    }\n\n    function gen_share(uint256[] memory array, uint x) public view returns(uint256){\n        uint256 ans = 0;\n        uint256 o = G.GEN_ORDER;\n        for(uint i=0; i<array.length; i++){\n            ans = addmod(ans , mulmod(array[i],G.expMod(x,i,o),o),o); \n        }\n        return ans % o;\n    }\n\n    function generate_kr_shares(G.G1Point memory cm) public returns(uint256[] memory, uint256[] memory) {\n        uint256[] memory poly_validators = new uint256[](tv);\n        uint256[] memory poly_openers = new uint256[](to);\n        uint256[] memory validators_share = new uint256[](nv);\n        uint256[] memory openers_share = new uint256[](no);\n        uint256 kr = gen_random();\n        id_kr[hash_to_int(cm)] = kr;\n        poly_validators[0] = kr;\n        poly_openers[0] = kr;\n        for(uint i=1; i<tv; i++){\n            poly_validators[i] = gen_random();\n        }\n        for(uint i=1; i<to; i++){\n            poly_openers[i] = gen_random();\n        }\n\n        for(uint i=1; i<=nv; i++){\n            validators_share[i-1] = gen_share(poly_validators,i);\n        }\n        for(uint i=1; i<=no; i++){\n            openers_share[i-1] = gen_share(poly_openers,i);\n        }\n        return (validators_share, openers_share);\n    }\n\n    function gen_random() public returns(uint256){\n        randNonce++;\n        return uint256(keccak256(abi.encodePacked(block.timestamp,msg.sender,randNonce))) % G.GEN_ORDER;\n    }\n\n}",
  "sourcePath": "/home/neel/acad/DTRAC/ravc-main/contracts/Accumulator.sol",
  "compiler": {
    "name": "solc",
    "version": "0.8.13+commit.abaa5c0e.Emscripten.clang"
  },
  "schemaVersion": "3.4.13",
  "updatedAt": "2023-05-23T11:27:13.857Z",
  "networkType": "ethereum",
  "devdoc": {
    "kind": "dev",
    "methods": {},
    "version": 1
  },
  "userdoc": {
    "kind": "user",
    "methods": {},
    "version": 1
  }
}